:020000040800F2
:10000000880A0020D5020008130300081503000821
:1000100017030008190300081B0300080000000074
:100020000000000000000000000000001D030008A8
:100030001F0300080000000021030008F91B00084E
:1000400025030008250300082503000825030008F0
:1000500025030008250300082503000825030008E0
:1000600025030008250300082503000825030008D0
:10007000250300082503000825030008751400085F
:10008000250300087914000825030008250300084B
:1000900025030008250300082503000825030008A0
:1000A0002503000825030008250300082503000890
:1000B0002503000825030008250300082503000880
:1000C0002503000825030008250300082503000870
:1000D00025030008B1210008B52100082503000808
:1000E0002503000825030008250300082503000850
:1000F0002503000825030008250300082503000840
:10010000250300082503000825030008250300082F
:10011000250300082503000825030008250300081F
:10012000250300082503000825030008250300080F
:1001300025030008250300082503000825030008FF
:1001400025030008250300082503000825030008EF
:1001500025030008250300082503000825030008DF
:1001600025030008250300082503000825030008CF
:1001700025030008250300082503000800000000EF
:10018000250300082503000800F002F800F092F8AB
:100190000AA090E8000C82448344AAF10107DA45E2
:1001A00001D100F087F8AFF2090EBAE80F0013F0A2
:1001B000010F18BFFB1A43F001031847FC38000079
:1001C0001C390000103A24BF78C878C1FAD8520709
:1001D00024BF30C830C144BF04680C6070470000C1
:1001E0000023002400250026103A28BF78C1FBD840
:1001F000520728BF30C148BF0B6070476E2900F01E
:100200006781702900F0AD82662903F05C8365295F
:1002100003F05983672903F05683612903F055835E
:1002200003681B0A28BF41F08001692900F014818E
:10023000642900F01181752900F00E816F2900F00A
:100240003B82782900F07982E92900F0D581E42900
:1002500000F0D281F52900F0CF81EF2900F038823B
:10026000F82900F078820368DB0928BF41F080019B
:10027000632900F08287732900F08787E32900F063
:100280009287F32900F09787002070471FB503F08D
:100290000DFB00F0E5FF04000020002103F040F812
:1002A000401C60600020002103F024F8E0601FBDC6
:1002B00010B510BD00F0A7FF1146FFF7E7FF02F0F1
:1002C00047F901F083F803B4FFF7F2FF03BC01F034
:1002D000C9F8000017481849184B99423CBF50F81C
:1002E000042B41F8042BF8D3154B16494FF00002AC
:1002F0008B4238BF43F8042BFAD3DFF84C00016877
:1003000041F470010160BFF34F8FBFF36F8F0F484F
:100310000047FEE7FEE7FEE7FEE7FEE7FEE7FEE753
:10032000FEE7FEE7FEE7000009480A490A4A0B4BD0
:1003300070470000083C0008000000200800002072
:1003400008000020880A002088ED00E089010008EC
:1003500088040020880A00208806002088060020E3
:100360000FB41CB5084B06AA7B446946009005985B
:1003700000F0C7F804460020694600F0D5F8204692
:100380001CBC5DF814FB0000BD0100007047704705
:10039000704770B5044685690068C10601D53026EE
:1003A00000E02026C00707D070BDD4E90121304607
:1003B0009047206A401C20626D1EF6D570BD70B556
:1003C000044685690078C00707D170BDD4E90121D2
:1003D00020209047206A401C20626D1EF6D570BD1B
:1003E00009684A0501D540B27047C905FCD500B27D
:1003F000704709684A0501D5C0B27047C905FCD5E8
:1004000080B2704770B50C460546012A05D02878A1
:10041000800600D5EA69002302E0012305E05B1CA9
:10042000934202D2E05C0028F9D1A869E618C01A0C
:10043000A861286A184428622846FFF7AAFF04E04A
:10044000D5E9012114F8010B9047B442F8D32846AE
:10045000FFF7B5FF70BD00002DE9F041064600240E
:1004600010687529314616A510D0FFF7B9FF00288E
:1004700002DA404213A507E031688A0701D512A5C8
:1004800002E0490704D511A5012401E0FFF7B1FFFF
:1004900000210A2206F1240709E0B0FBF2FCB0FBC0
:1004A000F2F302FB1C00303078541846491C002837
:1004B000F3D123462A463046BDE8F04100F068BA41
:1004C000000000002D0000002B00000020000000B4
:1004D00011680268006A530501D508700AE0D30567
:1004E00001D5088006E0130603D5C217C1E9000252
:1004F00000E008600120704701694A1C0261087829
:10050000704700B58FB0CDE9013100210591054953
:100510007944CDE903101146684600F02DF90FB07B
:1005200000BD0000E5FFFFFF0A6802F8010B0A604A
:10053000704700002DE9FF5F15468A460446DFF844
:10054000AC80F8440027D8E900103E46CDE9001001
:1005500010E03AF816106A4602A800F030FE411C7E
:1005600007D02178890603D5E269391891420DD860
:100570000744761C2078800602D5E069B84205DD84
:10058000AE42E6DB3AF816000028E2D1A069C01BB3
:10059000A0612046FFF7FDFED8E90010CDE900106C
:1005A000002017E03AF818106A4602A800F007FE8B
:1005B000B0F1FF3F81460BD000250DF1080B05E09F
:1005C000D4E901211BF8050090476D1C4D45F7D378
:1005D00008F10100B0428046E4DB206A3844206222
:1005E0002046FFF7ECFE00F003B800008A3300005D
:1005F0003FBCBDE8C09F00002DE9F0418046D21D00
:1006000022F007020025D2E90002F52915A614D030
:10061000011E72F1000106DA0023D0EB030063EB48
:10062000020211A608E0D8F800108B0701D50FA62A
:1006300002E0490701D50EA601251146002408F164
:10064000240704E000F05FF930323A55641C50EAA8
:100650000102F7D12B46324621464046BDE8F04123
:1006600000F096B9000000002D0000002B000000F3
:100670002000000030B4002100F1240408E002F062
:100680000705D208303542EA4372DB086554491C3D
:1006900052EA0305F3D10468002310A2250708D508
:1006A00004F020040C4304D0C46901230CA2641E8E
:1006B000C46130BC00F06CB910B504462146106826
:1006C000FFF797FE02462046BDE810400023D1E721
:1006D000D21D22F00701D1E90023CBE70000000082
:1006E00030000000F0B40D460188090502D5214C08
:1006F0007C4402E01F4C7C440E34002100F12406AF
:1007000008E002F00F071209E75D42EA03721B09D5
:100710007754491C52EA0307F3D1027800231207E9
:1007200004D5702D06D009B1022311342246F0BC45
:1007300000F02EB901231034F8E770B504460D46D9
:1007400021461068FFF755FE024629462046BDE8BF
:1007500070400023C6E7D21D22F00703D3E900232F
:10076000C0E70368126843F0200303600823C361F5
:100770000023B7E7E43100002DE9F05F8946044625
:100780004FF0000ADFF874B1FB44C0F820A0204607
:10079000E1688847002874D0252806D0D4E90121D3
:1007A0009047206A401C2062F1E700265F46204601
:1007B000E16888472028054607DB312D05D27819E6
:1007C00010F8200C08B10643F1E7B00701D526F078
:1007D0000406C4F81CA00027C4F818A02A2D09D0CC
:1007E000284602F07FFD38B304EB8708303DC8F897
:1007F000185019E059F8041B204604EB8702916158
:10080000E1688847012F054618D1E069002820DA01
:1008100026F020061DE0D8F8180000EB800005EB5C
:1008200040003038C8F818002046E168884705467F
:1008300002F058FD0028EED1012F0AD02E2D08D14C
:100840002046E16888477F1C0546022F46F02006B7
:10085000C4DBA069002803DA404246F00106A0612B
:10086000F00701D026F010066C2D0BD0682D09D0B2
:100870004C2D39D06A2D35D0742D35D07A2D33D00A
:1008800016E038E0E1682F4620468847B842054622
:1008900009D16C2F26D04FF48060E16806432046D2
:1008A0008847054604E06C2F1AD04FF48070064349
:1008B0000DB3A5F14100192802D8203546F4006691
:1008C0004A462946204626604E46FFF797FC80B1EF
:1008D00001280BD0F61D26F0070000F1080956E7A5
:1008E0004020E4E78020D8E70020D6E706F104099D
:1008F0004DE7284652E7206A00F002B87431000044
:1009000030BCBDE8C09F30B5B0F10A0271F1000300
:100910004FEA900E4EEA817EB0EB0E0061EB910142
:100920004FEA101E4EEA017E10EB0E0041EB111152
:100930004FEA102E4EEA016E10EB0E0041EB112132
:100940004FEA104E4EEA014E10EB0E0041EB114102
:10095000401841F100014FEAD00040EA41704FEAEF
:10096000D1014FEA810444EA907410EB800544EB16
:1009700001046D1944EB0404521BA3414FF0000322
:1009800048BF0A3200D530BD401C41F1000130BDE6
:100990002DE9F0470D4699469246044600F1240899
:1009A0000168880604D5E06921F01001216000E0AB
:1009B0000120A84201DD471B00E00027A1697A1948
:1009C00002EB0900081AA0612078C00602D4204674
:1009D000FFF7DFFC002608E0D4E901211AF8060041
:1009E0009047206A401C761C20624E45F4DB20783C
:1009F000C0060AD52046FFF7CCFC06E0D4E9012169
:100A000030209047206A401C2062381EA7F1010761
:100A1000F4DC07E0D4E9012118F805009047206ACA
:100A2000401C2062281EA5F10105F3DC2046FFF7DB
:100A3000C6FC2078000602D50220BDE8F087012020
:100A4000FBE72DE9FF4F0C461E464FF0FF378BB0FA
:100A5000D2E90001DDF860800A908A46C1F30A55A8
:100A600005B93D46002108464FF00000BAF1000FDD
:100A700000F4400005DA00EB80004FF4400101EA89
:100A800050004FEA9059B9F1010F00DDB9460A98BC
:100A900050EA4A000ED044F61050A5F2FF35454307
:100AA0002F14B8F1000F1ED07542291E1EDDC9F1AA
:100AB00000021CE0B8F1010F4FF0000001D030211E
:100AC00003E0F24305E02154401CB042FBDB30461A
:100AD0000022002121540B99C1F80880C1E90020AF
:100AE0000FB000F0BCB9BD1B6D1CDEE74A4600DA52
:100AF000694206A800F0F8FB06AB93E8070003ABD9
:100B000083E8070050460A9902F00CF88DE80700C8
:100B1000A0F500501F3800900398002D0ADD42F226
:100B20001F014A460844002303A90390684602F0C7
:100B300075FA09E0A0F500504A461F38002303A9C2
:100B40000390684602F07FFA8DE807000004000C6D
:100B500003D04FF0FF30410800E01046B8F1000F1D
:100B600003D00022009215461EE0751E05D4FFF743
:100B7000CAFE303262556D1EF9D5B34601220843D4
:100B800002D000227F1C04E02078302801D100220E
:100B90007F1E002A099784D01DE0112D07DAFFF788
:100BA000B2FE303262556D1C50EA0102F5D10843A5
:100BB00002D00098C8B10EE00021681E05E0235C59
:100BC000625C63542254401E491C8142F7DBAB46F1
:100BD000A81B401E0990002004F80B000B98099AEE
:100BE000C0F80880C0E9002B7AE711264FF0000812
:100BF00057E72DE9F04F88460446D21D22F0070141
:100C000091B0D1E90001CDE90A0102F053FB02469F
:100C10000B98C00F01D02D2007E02068810701D577
:100C20002B2002E0202101EAC000032A099001D014
:100C3000072A05DB03464146204600F015FB0BE181
:100C40002078800601D5E06900E00620B8F1650F44
:100C5000814606D0B8F1660F18D0B8F1670F70D191
:100C600031E00020B9F1110F009001DB112301E008
:100C700009F101030AAA01A90CA8FFF7E2FEDDE9C8
:100C80000C70002609F10105834647E001204B4620
:100C900000904FF000470AAA01A90CA8FFF7D1FE67
:100CA000DDE90DB00C995D46002610B909F101008F
:100CB0000D18B9EB050003D4C0F1FF3609F10105A9
:100CC000A5EB09002BE0B9F1010F01DA4FF00109A2
:100CD0000020B9F1110F0090484601DD112300E01A
:100CE00003460AAA01A90CA8FFF7ABFEDDE90C70C8
:100CF0004D4600268346207800070AD4AB4500DA2B
:100D00005D4601A8012D04DD411911F8011C3029AF
:100D100007D04F4502DA17F1040F04DA01208246AA
:100D20000FE06D1EEEE7002F02DCED1B3E4403E0FA
:100D3000781CA84200DD7D1CB81B00F1010A4FF0B1
:100D400000472078000703D4AA4501DB4FF0FF3AA3
:100D50000021B7F1004F0DF143088DF8431024D066
:100D600002202B23002F01DA7F422D230A21021EAD
:100D7000A0F1010000DC5FB197FBF1FC97FBF1F201
:100D800001FB1C7C17460CF1300C08F801CDEEE796
:100D9000A8F1010003702188090501D5452100E073
:100DA0006521A0F1010800F8011C09980FA9A1EB29
:100DB0000807FF1D00B10120411901EBEA70A1698C
:100DC0003844081A401EA0612078C00602D420468C
:100DD000FFF7DFFA099828B1D4E901219047206A8A
:100DE000401C20622078C00622D52046FFF7D1FAA9
:100DF0001EE0002E04DBB34502DD01A8805D00E0AB
:100E00003020D4E901219047206A401C2062761CE2
:100E1000AAF101005FEA000A0AD100F021FAC068D5
:100E20000168405CD4E901219047206A401C20629F
:100E3000281EA5F10105DCDC07E0D4E9012118F842
:100E4000010B9047206A401C2062381EA7F1010761
:100E5000F3DC2046FFF7B3FA032011B041E630BCC3
:100E6000BDE8C08F2DE9F04F04460D46D21D22F09B
:100E7000070089B0D0E900974846394602F01AFACF
:100E80000246F80F01D02D2307E02068810701D525
:100E90002B2302E0202101EAC0038DF820300BB1A2
:100EA000012000E00020032A824601D0072A04DB4B
:100EB0002946204600F0D8F93FE12078800601D489
:100EC0000D2500E0E569C7F30A560D2D49DA00212A
:100ED0004FEA175B08464FF00000002F00F4400077
:100EE00007DA00EB80004FF4400100EBD07001EA1C
:100EF00060008115012901DD4FF0FF3100224FEA2A
:100F0000850CBCF1180F06D31346ACF118004FF056
:100F10008052C24003E04FF4801323FA0CF30CF12B
:100F20000C0CBCF1200F04D3ACF1200C09FA0CF02E
:100F300001E007FA0CF000294FF0004801DD18B974
:100F40000FE00ED140450CD319EB02095F4121B9E6
:100F5000404502D19F4329EA0209BBEB175F00D04D
:100F6000761C2088000502D57B48784402E07A4848
:100F70007844193808AA302302F80A30037C0AF1B1
:100F80000101002E0AF1020A53546A4602DC4FF0B6
:100F9000300101E04FF031014FF001088DF80010F1
:100FA00002D0A6F2FF3603E059EA470100D06B4EAB
:100FB000002D02DC2178090704D54FF002082E210C
:100FC0008DF80110C44600210BE0C7F303433F0135
:100FD000C35C491C6D1E02F80830052908F10108A0
:100FE00001DA002DF1DC00210CE000EB1973491C43
:100FF0001B786D1E082902F808304FEA091908F11C
:10100000010801DA002DF0DC21688B0602D516E01C
:10101000A8F10108E04505DD02EB080313F8013CE7
:10102000302BF5D0B8F1000F09DD02EB080313F8FF
:10103000013C2E2B03D1090701D4A8F10108002D92
:1010400005DD3E2102F808106D1E08F10108407C04
:10105000002E02F8080008F1010804DA2D2076427B
:1010600002F8080002E02B2002F808000A214FF4E1
:101070007A70864208F101080BDB96FBF0F33033FF
:1010800002F8083096FBF0F308F1010800FB136644
:1010900001E0642E0CDB642096FBF0F3303302F8A1
:1010A000083096FBF0F308F1010800FB136601E03D
:1010B0000A2E06DB96FBF1F0303002F8080008F14A
:1010C000010896FBF1F001FB1060303002F80800D7
:1010D000A16908F1010808EB050202EB0A00081AF1
:1010E000A0612078C00602D42046FFF752F9216A99
:1010F00008AE01EB0A00206204E0D4E9012116F8F1
:10110000010B9047BAF1010AF7D22078C00602D548
:101110002046FFF73EF96E4609E016F8010B3E281F
:101120000FD0D4E901219047206A401C2062B8F119
:101130000108F2D22046FFF742F909B0032000F07F
:101140000FB8206A2844206203E0D4E9012130204E
:1011500090476D1EEBD3F8E7B629000002FCFFFFB5
:1011600030BCBDE8C08F10B5436913B1AFF3008048
:1011700001E0FFF747F9012010BD127800F12401CA
:101180000A7000224A700122EDE711684FF0FF3229
:10119000E9E710B5436913B1AFF3008001E0FFF751
:1011A000C9F9012010BD128800F1240182840022B7
:1011B000C2840122EDE711684FF0FF32E9E72DE923
:1011C000F04116460C46054600F042F8036893F8D5
:1011D0000101012807D0FF2C12D8185D80B1012031
:1011E0002C70BDE8F081D3F807013246214603F2A6
:1011F0000713C7182846BC46BDE8F04100236047E6
:101200004FF0FF30EDE7754600F0EAF8AE46050016
:101210006946534620F00700854618B020B5FFF711
:1012200083F8BDE820404FF000064FF000074FF074
:1012300000084FF0000BAC46ACE8C009ACE8C009B0
:10124000ACE8C009ACE8C00921F007018D46704741
:1012500010B500F005F8001D10BD00BFC52000004E
:1012600000487047280000202DE9F0411F46044641
:1012700003260168072A01F4006004DB08B116A503
:1012800005E016A503E008B115A500E015A521F0BD
:1012900010002060A069C01EA0610FB1401EA061B7
:1012A0002046FFF776F84FB1D4E901213846904740
:1012B000206A401C2062C01C206206E0206AFAE717
:1012C000D4E9012115F8010B9047761EF8D220468B
:1012D000FFF775F8BDE8F0814E414E006E616E007B
:1012E000494E4600696E66002DE9F0478146164674
:1012F0008AB0354878440DC88DE80D0032487844EE
:10130000801C03AC0DC884E80D0041F69B300844F6
:10131000372190FBF1F290FBF1F5A5F1800501FB7F
:1013200012041B3C02D56442012000E00020DFF8DB
:1013300098A080460027FA44AAF1BE0A0EE0E00712
:101340000AD03246684607EB470101230AEB8101C8
:1013500001F079FE8DE8070064107F1C002CEED1AF
:10136000194F7F44AE3F19E0E80715D007EB041092
:101370000DF1180A90E80E008AE80E00C068F042ED
:1013800001D1981908903246012306A903A801F05B
:101390005AFE03AB83E807006D10641C002DE3D1F7
:1013A0004FF0010332466946B8F1000F03A802D09E
:1013B00001F034FE01E001F046FEC9E90001C9F880
:1013C00008200AB0BDE8F087BC26000010B504462E
:1013D000AFF300802046BDE81040FEF774BF000068
:1013E000004870470800002030B44FF0013C50F82E
:1013F000042B51F8043BCCFA52F4D51A20D1FCB995
:1014000050F8042B51F8043BCCFA52F4D51A17D1FA
:10141000B4B950F8042B51F8043BCCFA52F4D51A65
:101420000ED16CB950F8042B51F8043BCCFA52F4AD
:10143000D51A05D1002CDAD030BC4FF0000070472F
:1014400029BAB1FA81F111F01801D1F120008440DC
:10145000F2D1CA40CB4012F0FF0213F0FF0330BCC0
:10146000D01A704701491820ABBEFEE726000200E3
:10147000704700007047000080B50020C4F20200F1
:1014800000688001002809D5FFE70421C4F20201A9
:101490004FF00070086001F0BFF9FFE78021C4F24F
:1014A0000201086820F0010008600421C4F2020172
:1014B000086840F08070086080BD000080B586B08C
:1014C0000590049141F24801C4F20201086840F01D
:1014D0000100086000200390FFE70398C0087C2803
:1014E00005D8FFE7FFE7039801300390F5E705997A
:1014F000086820F0010008600599086820F4804021
:1015000008600599086820F440700860059908682B
:1015100020F4406008600599086820F040000860E9
:101520000599086840F0800008600599086840F057
:10153000100008600599086820F44050086005997B
:10154000086820F0200008600599086820F0040071
:1015500008600599086820F0080008600599086887
:1015600040F0020008600498283005998860112036
:10157000009000F095FE00980021019100F02AFFF4
:10158000009800F0D5FE0F20029000F089FE01992E
:10159000029800F01FFF029800F0CAFE06B080BD5E
:1015A00041F24C01C4F20201086840F002000860F8
:1015B00040F20041C4F60001086820F47040086061
:1015C000086840F42040086040F22041C4F6000161
:1015D000086820F07F400860086840F08840086094
:1015E00040F20441C4F60001086840F0C000086001
:1015F00040F20C41C4F60001086820F47040086015
:10160000086840F4A040086040F20841C4F60001B8
:10161000086840F4704008607047000082B05220B3
:10162000019041F25801C4F20201086840F4001030
:10163000086041F28801C4F20201086820F44050B9
:101640000860086840F48050086041F23801C4F234
:101650000201086840F400100860086820F40010D7
:10166000086045F20041C4F20001086820F0010062
:10167000086000200090FFE7009841F2873188421F
:1016800004DCFFE7009801300090F5E745F20041E7
:10169000C4F20001086820F480500860086820F453
:1016A00070600860086840F080000860086820F4F6
:1016B0000030086045F20442C4F20002106820F4D1
:1016C00000601060106840F400401060106840F046
:1016D0000070106045F21042C4F20002106820F061
:1016E00070401060106840F0E0401060106800F03A
:1016F0007F401060106840F420001060106840F4D3
:1017000040201060106840F420501060106840F0D5
:101710002F00106045F20842C4F20002106820F465
:1017200000401060106820F480601060106840F085
:10173000A4001060106840F400401060086840F099
:101740000100086002B0704780B586B004908DF843
:101750000F1002928DF807309DF80700012803DB77
:10176000FFE7029820B9FFE7FF208DF8170034E06B
:10177000049800F0EDF804989DF80F109DF80720EC
:10178000012300F09DF800200090FFE700989DF8ED
:101790000710884212DAFFE7FFE7049880694007E4
:1017A000002801D4FFE7F8E70498406A0299009AFC
:1017B0008854FFE7009801300090E7E7FFE70498BE
:1017C00080694006002801D4FFE7F8E7049800F09C
:1017D000ADF800208DF81700FFE79DF9170006B05F
:1017E00080BD000080B588B006908DF81710049277
:1017F0008DF80F309DF80F00012803DBFFE70498F8
:1018000020B9FFE7FF208DF81F0055E0069800F093
:101810009FF806989DF817109DF80F20002300F000
:101820004FF8B0F1FF3F04DCFFE7FF208DF81F0009
:1018300042E000200290FFE702989DF80F108842D6
:1018400012DAFFE7FFE7069880698007002801D4D5
:10185000FFE7F8E704980299405C06998862FFE781
:10186000029801300290E7E7FFE7069881690020BF
:1018700049060029019009D4FFE70698806900F025
:101880001001012080EA11100190FFE70198C007C4
:1018900008B1FFE7E9E706988069C006002804D58B
:1018A000FFE7FF208DF81F0006E0069800F03EF8E5
:1018B00000208DF81F00FFE79DF91F0008B080BDD4
:1018C00084B0039002918DF807208DF80630002037
:1018D0000090039840680090009849F60001CFF608
:1018E0000041084000909DF80600012805D1FFE75F
:1018F000009840F48060009004E0009820F480603C
:101900000090FFE702986FF39F209DF8071040EAD0
:101910000141009808430090009840F40050009066
:10192000009803994860002004B0704781B000908F
:101930000099486840F480404860FFE7009880695B
:101940008006002801D4FFE7F8E701B070470000E7
:1019500081B00090FFE7009880690004002801D55D
:10196000FFE7F8E701B0704741F24C01C4F2020111
:10197000086840F001000860086840F00400086052
:101980004FF09041086820F440600860086840F417
:10199000806008600421C4F60001086820F020007F
:1019A00008600C21C4F60001086820F4406008605B
:1019B000704700001421C4F60001086880F0200080
:1019C0000860704741F24C01C4F20201086840F01F
:1019D0000400086040F60001C4F60001086841F206
:1019E0000042C0F205021040086040F60801C4F64B
:1019F0000001086843F60042C0F20F02104308607D
:101A000040F60C01C4F6000108680020086040F6AA
:101A10000401C4F600010A68086040F61401C4F627
:101A200000010A68086040F27841C2F200010870C3
:101A30007047000041F24C01C4F20201086840F016
:101A4000030008604FF09041086820F4407008607F
:101A5000086840F40070086040F20041C4F60001DC
:101A6000086820F47C600860086840F4286008601A
:101A70002021C4F60001086820F47020086008687E
:101A800040F4A020086040F22041C4F6000108683C
:101A90006FF317300860086845F20002C0F2550283
:101AA000104308600821C4F60001086840F4407043
:101AB000086040F20841C4F60001086840F47C6008
:101AC0000860704741F26001C4F20201086840F406
:101AD0008050086041F24001C4F20201086840F4FD
:101AE00080500860086820F48050086043F20001CC
:101AF000C4F20101086820F040000860086820F482
:101B000080600860086820F400400860086820F4DD
:101B100080400860086820F08000086043F20402FA
:101B2000C4F20102106840F470601060106820F088
:101B300010001060086840F003000860086820F09A
:101B400038000860086840F018000860086820F451
:101B500000500860086840F004000860086820F43D
:101B600000700860106840F008001060106840F0D5
:101B700004001060086840F480700860106820F469
:101B800080501060086840F0400008607047000016
:101B900081B0ADF80200FFE743F20800C4F2010093
:101BA000006800F00200022801D0FFE7F4E7BDF86A
:101BB000020043F20C01C4F201010860FFE743F2A6
:101BC0000800C4F2010000680006002801D5FFE704
:101BD000F5E7FFE743F20800C4F201000068C00720
:101BE00008B9FFE7F6E743F20C00C4F20100006811
:101BF00080B201B07047000080B540F27441C2F27B
:101C0000000108680130086040F26C40C2F2000038
:101C100001680131016000680B2809D3FFE740F239
:101C20006C41C2F200010020086000F08DFEFFE769
:101C300080BD000080B582B04EF21001CEF20001EE
:101C4000002008604EF21403CEF2000343F67F0238
:101C5000C0F201021A604EF21802CEF200021060C9
:101C6000086840F002000860086840F00100086061
:101C7000086840F0040008604FF0FF30019000F069
:101C80003FFB0198012100F083FB02B080BD000002
:101C900083B042F20001C4F20201086820F007009C
:101CA0000860086840F00200086041F20001C4F2D8
:101CB0000201086840F480700860FFE741F200000C
:101CC000C4F2020000684005002801D4FFE7F5E7F0
:101CD0001020029041F20401C4F20201086820F0D1
:101CE000F8500860029A086840EA0260086041F211
:101CF0000001C4F20201086820F080700860FFE76C
:101D000041F20000C4F2020000688001002801D501
:101D1000FFE7F5E741F20C01C4F202010191086806
:101D200020F003000860086840F0020008600868BE
:101D3000142262F30E2008600868012262F3061084
:101D40000860086820F0C0600860086840F0807093
:101D5000086041F20001C4F20201086840F080709E
:101D60000860FFE741F20000C4F202000068800151
:101D7000002801D4FFE7F5E741F20801C4F20201AF
:101D8000086820F003000860086840F0030008605D
:101D9000FFE741F20800C4F20200006800F00C0006
:101DA0000C2801D0FFE7F4E741F20801C4F2020178
:101DB000086820F0F0000860086820F4E06008601F
:101DC000086820F46050086041F20001C4F202018A
:101DD000086820F080600860FFE741F20000C4F26C
:101DE000020000684001002801D5FFE7F5E741F255
:101DF0001001C4F202010091086820F4FE4008605E
:101E0000086840F4C0500860086840F4003008607A
:101E1000086840F48030086041F20001C4F2020119
:101E2000086840F080600860FFE741F20000C4F2FB
:101E3000020000684001002801D4FFE7F5E741F205
:101E40008801C4F20201086820F44000086041F2F1
:101E50006001C4F20201086840F40010086003B099
:101E60007047000041F24C01C4F20201086840F0E2
:101E7000010008604FF09042106820F030001060C0
:101E8000106840F0200010602021C4F600010868AE
:101E900020F470600860086840F48070086008688A
:101EA00040F400700860086840F4806008601068C2
:101EB00020F0C0001060106840F0800010600868DA
:101EC00020F470400860086840F48050086008689A
:101ED00040F400500860086840F480400860082121
:101EE000C4F60001086840F030000860086840F05F
:101EF000C00008600421C4F60001086820F0040056
:101F00000860086820F0080008600C21C4F6000191
:101F1000086820F030000860086840F01000086091
:101F2000086820F0C0000860086840F040000860C1
:101F30007047000080B584B0FFF794FF41F258016C
:101F4000C4F20201086840F40030086041F28801E0
:101F5000C4F20201086820F00C000860086840F034
:101F60000400086040F28040C2F20000019080212D
:101F7000C4F202010160006844F20041C4F20001B1
:101F80000291FFF79BFA019A029840F20001C2F217
:101F9000000109681268D160A822C4F20202116827
:101FA00021F070611160116841F00071116000F062
:101FB00039F92620039000F0D3F90398012100F0AD
:101FC0002BFA04B080BD000080B58AB0099008915A
:101FD000FFF7F0FC00200790FFE707980899884278
:101FE00072D2FFE709980799405C8DF81B009DF8B5
:101FF0001B000A2801D1FFE766E09DF81B0031288D
:1020000024D1FFE70020059000F03AFD40F268007F
:10201000C2F20000049043F64F21C0F60001FEF723
:102020009FF9049800F052F8059840F26A32C2F223
:1020300000020121117040F26932C2F200021170F7
:1020400040F27C41C2F20001086038E09DF81B00BC
:10205000322824D1FFE740F26800C2F2000002906B
:1020600043F65E21C0F60001FEF77AF9029800F00F
:102070002DF80120039000F003FD039940F26A322D
:10208000C2F200020020107040F26932C2F2000277
:10209000117040F27C41C2F2000108600EE040F293
:1020A0006800C2F20000019043F61121C0F6000161
:1020B000FEF756F9019800F009F8FFE7FFE7FFE7A0
:1020C00007980130079088E70AB080BD82B0019080
:1020D00000208DF80300FFE701989DF80310405C95
:1020E00030B1FFE79DF8030001308DF80300F3E7FE
:1020F00040F28040C2F200000168096801F001016D
:102100008DF8021000680068C00750BBFFE7002090
:102110008DF80100FFE79DF801009DF8031088424B
:1021200011DAFFE701989DF80120805C40F2000180
:10213000C2F2000109688854FFE79DF801000130F0
:102140008DF80100E7E79DF8031040F28040C2F2ED
:102150000000026851600168086840F001000860F2
:1021600023E000208DF80000FFE79DF800009DF8B7
:102170000310884211DAFFE701989DF80020805C87
:1021800040F20401C2F2000109688854FFE79DF89B
:10219000000001308DF80000E7E79DF8030040F2F1
:1021A0007041C2F200010870FFE702B07047000002
:1021B0007047000080B582B0262000F089F844F214
:1021C0001C40C4F2000000688006002814D5FFE718
:1021D00044F21841C4F20001088840F00800088069
:1021E00044F22440C4F2000000888DF807009DF8F6
:1021F000070000F051FCFFE744F21C40C4F200006D
:102200000068400600280BD5FFE744F22041C4F2E5
:102210000001086840F04000086000F0FDFAFFE7A8
:1022200002B080BD81B000900099086820F00100E4
:1022300008600099086800F08050086000990868FC
:1022400000F48050086044F20841C4F200010868BC
:1022500040F0800008600099086820F400400860A1
:102260000099486820F440504860009942F28D007F
:10227000C8600099086840F0080008600099086884
:1022800040F0040008600099086840F060000860B1
:102290000099086840F00100086001B07047000034
:1022A00081B08DF803009DF9030000280ED4FFE7EC
:1022B0009DF9031001F01F02012090404A094EF2DF
:1022C0008021CEF2000141F82200FFE701B0704703
:1022D00081B08DF803009DF9030000280ED4FFE7BC
:1022E0009DF9031001F01F02012090404A094EF2AF
:1022F0008021CEF2000141F82200FFE701B07047D3
:1023000081B08DF803009DF9030000280ED4FFE78B
:102310009DF9031001F01F02012090404A094EF27E
:102320000011CEF2000141F82200FFE701B0704732
:1023300081B08DF803009DF9030000280ED4FFE75B
:102340009DF9031001F01F02012090404A094EF24E
:102350000011CEF2000141F82200FFE701B0704702
:1023600081B08DF803009DF9030000280ED4FFE72B
:102370009DF9031001F01F02012090404A094EF21E
:102380000011CEF2000141F82200FFE701B07047D2
:1023900082B08DF8070000919DF9070000280AD44B
:1023A000FFE7009800019DF907104EF20042CEF2BF
:1023B000000288540BE0009800019DF8071001F01E
:1023C0000F014EF61452CEF200028854FFE702B01D
:1023D0007047000082B08DF8070000919DF907005A
:1023E00000280AD4FFE7009800019DF907104EF27B
:1023F0000042CEF2000288540BE0009800019DF8E4
:10240000071001F00F014EF61452CEF2000288546C
:10241000FFE702B07047000082B08DF8070000911E
:102420009DF9070000280AD4FFE7009800019DF9F4
:1024300007104EF20042CEF2000288540BE00098E2
:1024400000019DF8071001F00F014EF61452CEF274
:1024500000028854FFE702B07047000080B582B0E8
:102460008DF807000020ADF804009DF80710BDF8B6
:10247000040040EA012040F40040ADF80400BDF83B
:102480000400FFF785FBC0B202B080BD80B582B00A
:102490008DF807008DF806100020ADF804009DF8B7
:1024A00007109DF8060040EA0121BDF8040008432A
:1024B000ADF80400BDF80400FFF76AFB02B080BD70
:1024C00081B0009040F27441C2F200010020086027
:1024D0004EF21801CEF2000108604EF21401CEF265
:1024E000000143F67F00C0F2010008604EF21001C7
:1024F000CEF20001086840F001000860FFE740F2FA
:102500007440C2F2000000680099884201D2FFE7DF
:10251000F5E74EF21001CEF20001086820F001004C
:10252000086001B07047000040F26830C2F200005D
:1025300090F900007047000080B531200B21FFF7B3
:10254000A5FF2D200821FFF7A1FF80BD000000009E
:1025500080B5A8B0002007902790FFF799FBFFF700
:1025600031FAFFF767FBFFF7FFF9FFF763FAFFF7B1
:10257000A9FAFFF7E1FFFFF713F8FFF74FF8FFF7AE
:10258000D9FC40F26800C2F20000069043F6EC115C
:10259000C0F60001FDF7E4FE0698FFF797FD0798E7
:1025A0000F9064210E918DF837000C90022000F0FE
:1025B00067FA07984FF4FA610B918DF82B008DF8AC
:1025C0002A00FFE790208DF87F0000208DF8600042
:1025D0009DF87F1045F20040C4F20000059018AA53
:1025E00001230493FFF7FEF8049B05989DF87F10E4
:1025F0000DF14202FFF7A8F89DF842008DF87E0029
:102600009DF87E1001F07F000A0660F07F01002A2D
:1026100048BF0846099040F26930C2F200000078D5
:10262000C00790BBFFE709981C2814DBFFE740F2C6
:102630006A30C2F200000078C00760B9FFE740F2DC
:102640006A31C2F20001012008708DF82B000020D1
:1026500000F016FA18E00998182814DCFFE740F299
:102660006A30C2F200000078C00760B1FFE740F2B4
:102670006A31C2F200010020087001208DF82A00A2
:1026800000F0FEF9FFE7FFE7FFE724A822A920AA50
:1026900000F0E6F8FFF748FF8DF823002098219915
:1026A0009FED570B53EC102B01F0EBF898B9FFE7B7
:1026B000249825999FED540B53EC102B01F0E1F871
:1026C00048B9FFE79DF92300012804D1FFE7022064
:1026D00000F0D6F912E0209821999FED4D0B53ECB4
:1026E000102B01F0D5F840B9FFE79DF9230020B980
:1026F000FFE7022000F0C4F9FFE7FFE740F269308E
:10270000C2F200000078C007F0B1FFE740F27C4061
:10271000C2F2000000680B99884208DAFFE740F235
:102720007C41C2F200010868013008600BE040F211
:102730007C41C2F200010020086040F26931C2F21F
:1027400000010870FFE7FFE70F980E9988424DDB04
:10275000FFE79DF82B00C00790B1FFE700208DF840
:102760002B0040F26800C2F20000039043F66D2196
:10277000C0F60001FDF7F4FD0398FFF7A7FC30E079
:102780009DF82A00C00790B1FFE700208DF82A00CD
:1027900040F26800C2F20000029043F69221C0F6B7
:1027A0000001FDF7DDFD0298FFF790FC18E00998A5
:1027B0000C99884212D0FFE709980C90099A40F2D0
:1027C0006800C2F20000019043F6FE11C0F600015D
:1027D000FDF7C6FD0198FFF779FC00E0FFE7FFE792
:1027E000FFE7FFF7E7F800200F90FFE70A20FFF769
:1027F00067FE0F9801300F90E4E600BF00BF00BFF6
:102800009A9999999999B93F00000000000020C059
:10281000000000000000004080B582B040F270402F
:10282000C2F200000078012818DBFFE740F2000048
:10283000C2F200000168019140F20402C2F20002FB
:1028400011680160019911600068FFF73FFC40F2D8
:102850007041C2F2000100200870FFE702B080BDA5
:1028600080B58CB00B900A91099232200190FFF74D
:10287000F5FDADF822003320FFF7F0FD0146019889
:102880000291FFF7EBFD029940EA0120ADF820002C
:102890003520FFF7E3FD03903420FFF7DFFD0399B8
:1028A00040EA0120ADF81E003720FFF7D7FD049065
:1028B0003620FFF7D3FD049940EA0120ADF81C0053
:1028C000BDF8200000F012F900F0E2FE41EC100B20
:1028D00051EC100B9FED1A0B53EC102B0693059245
:1028E00000F040FD41EC100B0B9880ED000BBDF8A3
:1028F0001E0000F0FBF800F0CBFE059A069B41ECB1
:10290000100B51EC100B00F02DFD41EC100B0A9850
:1029100080ED000BBDF81C0000F0E8F800F0B8FEF8
:10292000059A069B41EC100B51EC100B00F01AFDC0
:1029300041EC100B099880ED000B0CB080BD00BF7E
:102940003333333333333F4081B040F26830C2F227
:10295000000090F90000022801D1FFE78EE000207E
:10296000009040F27840C2F20000017843F6CC10AB
:10297000C0F6000010F82100C00728B1FFE700985A
:1029800040F020000090FFE740F27840C2F20000E3
:10299000017843F6CC10C0F6000010F82100800743
:1029A000002805D5FFE7009840F040000090FFE7C1
:1029B00040F27840C2F20000017843F6CC10C0F635
:1029C000000010F821004007002805D5FFE7009817
:1029D00040F480700090FFE740F27840C2F20000BF
:1029E000017843F6CC10C0F6000010F82100000773
:1029F000002805D5FFE7009840F400700090FFE73D
:102A000040F61401C4F60001086820F4587008600C
:102A1000009A08681043086040F26830C2F2000073
:102A200090F9000098B9FFE740F27840C2F2000048
:102A30000178013101700078082807DBFFE740F2D8
:102A40007841C2F2000100200870FFE716E040F272
:102A50007840C2F20000007838B9FFE740F27841D0
:102A6000C2F200010720087007E040F27841C2F28C
:102A70000001087801380870FFE7FFE701B07047F0
:102A800081B08DF803009DF8030040F26831C2F276
:102A90000001087001B0704780B582B08DF8070062
:102AA0009DF8070040F26B33C2F200031A78511C04
:102AB000197040F26C31C2F2000188549DF8070091
:102AC0000A2810D1FFE740F26B30C2F200000090FC
:102AD000017840F26C30C2F20000FFF775FA0099FD
:102AE00000200870FFE702B080BD000082B0ADF8A2
:102AF00004004FF40040ADF80200BDF80400BDF83A
:102B00000210084205D1FFE7BDF80400ADF8060049
:102B100004E0BDF80400ADF80600FFE7BDF90600CB
:102B200002B070475FEA400C08BF91F0000F4FEA17
:102B30008C234FEAC12243EA51514FEA1C5018BF7F
:102B400000F5F0404FEA300018BF41F000415FEA65
:102B50006C5C00F02980BCF1FF3F08BF40F0804072
:102B60007047130C06BF12044FF0100C4FF0000C0E
:102B7000130E04BF12020CF1080C130F04BF120154
:102B80000CF1040C930F04BF92000CF1020CD30F54
:102B900004BF52000CF1010C11464FF00002A0F1ED
:102BA0001F00A0EB0C00704711F0004F08BF7047EA
:102BB00031F000413FF4D5AF0B0C06BF09044FF0D4
:102BC000100C4FF0000C0B0E04BF09020CF1080CA6
:102BD0000B0F04BF09010CF1040C8B0F04BF89001B
:102BE0000CF1020CCB0F04BF49000CF1010CCCF12D
:102BF000200322FA03F341EA030102FA0CF2A0EBEC
:102C00000C0000F10100704723F07F4720F07F4C5B
:102C100080EA030000F00040ACEB070303F57C53AF
:102C200003F1FF032DE9804909B44FEA144324EA74
:102C300003484FEA154B25EA0B4E0FF2042606EB2C
:102C400013273E7803FB0667C7F5000707FB06F668
:102C50004FEAD64606F102064FEA543707FB066CE8
:102C6000CCF1005C4FEA1C472CEA074C0CFB06F544
:102C700007FB06F404EB15464FEA961649085FEA8F
:102C8000320234BF00204FF000404FEAD13706FB3C
:102C900007FC4FEA1C4C0CFB0BF7D21B03FB0CF799
:102CA00061EB07010CFB0EF7B0EB074072EB17422C
:102CB0000CFB08F734BFA2EB0742B2EB074261EB13
:102CC00017414FEA0C444FEA910706FB07FC4FEA15
:102CD0001C4C0CFB0BF7B0EBC74072EB573203FBFD
:102CE0000CF734BFA2EBC742B2EBC74261EB5731DE
:102CF0000CFB0EF7B0EBC70072EB57720CFB08F73A
:102D000034BFA2EBC702B2EBC70261EB57714FEAC7
:102D1000816141EA92114FEA826242EA90124FEADF
:102D2000806004EBCC04039F4FEAD13706FB07FC1D
:102D30004FEA1C4C0CFB0BF7D21B03FB0CF761EBAF
:102D400007010CFB0EF7B0EB074072EB17420CFBD0
:102D500008F734BFA2EB0742B2EB074261EB174121
:102D60004FEA8C5504EB9C244FEA910706FB07FCC5
:102D70004FEA1C4C0CFB0BF7B0EBC74072EB573221
:102D800003FB0CF734BFA2EBC742B2EBC74261EBC7
:102D900057310CFB0EF7B0EBC70072EB57720CFB10
:102DA00008F734BFA2EBC702B2EBC70261EB577161
:102DB0004FEA816141EA92114FEA826242EA90123F
:102DC0004FEA806015EB4C2544F100044FEAD137FF
:102DD00006FB07FC4FEA1C4C0CFB0BF7D21B03FB5A
:102DE0000CF761EB07010CFB0EF7B0EB074072EB41
:102DF00017420CFB08F734BFA2EB0742B2EB0742C5
:102E000061EB17414FEA813141EA92414FEA823248
:102E100042EA90424FEA80304FEA0C7615EB1C15DF
:102E200044F1000448EA03434EEA0B484FF0000E19
:102E3000B2EB080C71EB030724BF624639464EEB38
:102E40000E0E4FF0000B0018524149414BEB0B0B9B
:102E5000B2EB080C71EB03077BF1000B24BF624659
:102E600039464EEB0E0E4FF0000B0018524149410F
:102E70004BEB0B0BB2EB080C71EB03077BF1000B78
:102E800024BF624639464EEB0E0E51EA020718BFC8
:102E900046F0010616EB0E7655F1000254F10001E2
:102EA00003D5BDE88901BDE80088BDE88901BDE81A
:102EB0000048B619524141EB0101A3F101037047EB
:102EC00080807F7E7D7C7B7A797877767675747367
:102ED000727171706F6E6E6D6C6C6B6A6A69686826
:102EE000676666656464636362616160605F5F5EBC
:102EF0005E5D5D5C5C5B5B5A5A5959585857575632
:102F00005655555554545353525252515150505096
:102F10004F4F4F4E4E4D4D4D4C4C4C4B4B4B4A4AE8
:102F20004A4949494848484747474746464645452C
:102F30004544444444434343434242424241414165
:102F40009C46002B30D477002BD04FEA37071CB5B6
:102F500003B44FF010004FF01001BAF1000F06D08B
:102F6000BCF1000FDCBF40F0080040F008014FF05A
:102F700000000FBCBDE810400BF1010BBBF1010FCD
:102F800008BF5FEA170722BF12F1010211F1010128
:102F90004FF0004143F1000300F0004043EA00001D
:102FA0007047F9D35708D0E746EA06464FEA164677
:102FB00013F1400F1FDD13F1200FDFBF16430A4648
:102FC000002120335B42BED0C3F1200746EA06460B
:102FD0004FEA164602FA07F746EA070622FA03F214
:102FE000C3F1200701FA07F742EA070221FA03F1C9
:102FF0004FF00003A7E746EA020646EA06464FEA14
:10300000164646EA0106BCBF46EA0646360C4FF0B5
:1030100000034FF000024FF0000194E72DE9804CCF
:1030200070B49A46934691E8380007C831EA400CDC
:1030300048BF34EA430C03D5FFF7E6FDFFF780FFF6
:10304000F0BCBDE8008C2DE9804C70B49A469346E4
:1030500091E8380007C810F0804F08BF13F0804F88
:1030600003D100F005F8FFF76BFFF0BCBDE8008C62
:1030700020F07F4723F07F4C80EA030000F00040FF
:1030800007EB0C03A3F57C53A3F1FE0392F0000FB2
:1030900000F0B38095F0000F00F077802DE9014932
:1030A0004FEA114021EA00484FEA144624EA064755
:1030B00000FB06FC08FB06F607FB08F818EB0648C1
:1030C0004CEB164C00FB07F718EB07484CEB17408E
:1030D0004FEA124B22EA0B4E4FEA154625EA064705
:1030E0000BFB06FC0EFB06F607FB0EFE1EEB064E68
:1030F0004CEB164C0BFB07F71EEB074E4CEB174B3C
:1031000018EB0B0840F1000018EB0E0B58EB000811
:1031100040F100008F1A4FF000014FF000063CBF55
:10312000C943661B14BFB5EB040C00213CBFC94367
:10313000F61B4FEA174427EA04454FEA1C472CEADE
:10314000074C04FB076205FB07F70CFB05F616EBC3
:10315000074642EB174204FB0CFC16EB0C4642EB15
:103160001C421BEB060658EB020241414EEA8E0E52
:1031700046EA9E0601D5BDE80189B619524141EBE8
:103180000101A3F10103BDE801894FEA144524EAD6
:1031900005464FEA114721EA074C05FB07F406FBF9
:1031A00007F70CFB06F111EB074144EB174405FB55
:1031B0000CFC11EB0C4144EB1C444FEA124722EA91
:1031C000074C05FB07F206FB07F70CFB06F616EBB0
:1031D000074642EB174205FB0CFC16EB0C4642EB94
:1031E0001C456A1854F1000148BF7047B619524196
:1031F00041EB0101A3F10103704795F0000F37D0B7
:103200004FEA114221EA02464FEA144724EA074CEA
:1032100002FB07F106FB07F70CFB06F414EB07446F
:1032200041EB174102FB0CFC14EB0C4441EB1C413D
:103230004FEA154725EA074C02FB07F506FB07F79F
:103240000CFB06F616EB074645EB174502FB0CFC9C
:1032500016EB0C4645EB1C42121951F1000148BF18
:103260007047B619524141EB0101A3F101037047C8
:103270004FEA144524EA05464FEA114721EA074C74
:1032800005FB07F106FB07F70CFB06F212EB074202
:1032900041EB174105FB0CFC12EB0C4251EB1C41BE
:1032A0004FF0000648BF7047921841EB0101A3F1AF
:1032B0000103704703B401984100009850EAC1200F
:1032C00018BF04204A0D18BF40F0010040F2FF7201
:1032D000B2EB515F08BF40F00200012808BF052093
:1032E00002B0704730380A2801D201207047002010
:1032F0007047000010B500290AD00878002807D0D0
:1033000005487844FEF770F8002801D0002010BD71
:103310000248784410BD0000D6070000CE07000028
:1033200010B500290AD00878002807D0054878444D
:10333000FEF75AF8002801D0002010BD024878445A
:1033400010BD0000C6070000BE070000491058BFAE
:10335000C1F140415B1058BFC3F140438B42EFF3D2
:10336000008070472DE9C04130B4DFF8A4C23CEAC8
:10337000111418BF3CEA131400F0ED801CEA11147C
:1033800081EA030544EAD57418BF1CEA131500F05E
:10339000C880A4EB050404F17F7404F500344FF0F9
:1033A000004545EAC12145EAC32341EA505143EAB9
:1033B00052534FEAC0204FEAC222994208BF9042BE
:1033C00000F09D804FEA13650FF24416765D4FEAD8
:1033D000134506FB05F7C7F1807706FB07F74FEAB1
:1033E000D737A7FB03687642A7FB06CEC8F580381F
:1033F00038BFA8F1010807FB08E6A6FB028C4FF0D6
:10340000000EE6FB03CEDCF1000CCEF1004E38BF1F
:10341000AEF1010EA6FB0C584FF00007E6FB0E873D
:10342000A1FB08C6A0FB07CE16EB0E064FF0000569
:1034300045F10005E1FB076515F1E04E7EBFA4F5FF
:1034400080345FEA46066D4116F1800745F10005BC
:103450004FEA172747EA05674FEA15254FEA066640
:10346000A6F1DE46B6F1805F20D9384605EBC4717F
:1034700024F0010C01EB0C11BCF1FE6F02D8F0BC82
:10348000BDE8008124425CBF01F5801E9EEAC47F36
:1034900002D4F0BCBDE80081244200F13980A1F1E2
:1034A000C041F0BCBDE8004100F0D0B94FEAD020E7
:1034B00040EA41504FEAD1214FEAD22242EA435238
:1034C0004FEAD323A7FB028607FB036605FB0266D0
:1034D0001EEA0E0F58BFA6EB0056B6EB00564FEA99
:1034E000520E4EEAC37E18EB0E0E56EB530EBCD5B1
:1034F00018EB02085E417F1C55F10005B5E74FF45B
:1035000080154FF000074FF000064FF00008ACE7C1
:1035100001F1C04101F000414FF00000F0BCBDE8F6
:1035200000810CEA131511EA0C1F00D00CE013EA1D
:103530000C1F00F026804FF0000081EA030101F02B
:103540000041F0BCBDE80081F0BCBDE8004181EA6B
:10355000030100F07BB9F0BCBDE8004170B500F09C
:1035600027F900BF097EFC3E00F007B84FF00000CD
:1035700081EA030101F00041704781EA030100F094
:1035800065B9F0BCBDE8004122494FF0000070472A
:10359000FFFDFBF9F7F5F4F2F0EEEDEBE9E8E6E418
:1035A000E3E1E0DEDDDBDAD8D7D5D4D3D1D0CFCD9F
:1035B000CCCBCAC8C7C6C5C4C2C1C0BFBEBDBCBBD8
:1035C000BAB9B8B7B6B5B4B3B2B1B0AFAEADACABD3
:1035D000AAA9A8A8A7A6A5A4A3A3A2A1A09F9F9EAD
:1035E0009D9C9C9B9A99999897979695959493935F
:1035F000929191908F8F8E8E8D8C8C8B8B8A8989F6
:103600008888878786858584848383828281818078
:103610000000FF070000F87F51EA030C17D41CF5E7
:10362000801F58BFBCF5801F00F10680994218BF6B
:10363000704708BF9042704707D711F5801F58BFE9
:1036400013F5801F19D499427047894270471CF5C1
:10365000801F08D5BCF5801FF7D58B4218BF704777
:1036600008BF824270474FF4001C1CEB410F38BF6B
:103670001CEB430F01D28B42704770B500F098F8F5
:10368000922449004FF000514FF08053FFF75EBE87
:1036900010F0004248BF4042B0FA80F310FA03F144
:1036A0000AD0C3F11D0303F5806302EB03524FEA16
:1036B000415002EBD12170474FF0000070470000ED
:1036C00051EA030C17D41CF5801F58BFBCF5801FAE
:1036D00000F10680994218BF704708BF90427047BA
:1036E00007D711F5801F58BF13F5801F19D49942D1
:1036F0007047894270471CF5801F08D5BCF5801FB4
:10370000F7D58B4218BF704708BF824270474FF40D
:10371000001C1CEB410F38BF1CEB430F01D28B4246
:10372000704770B500F044F8922449004FF0805182
:103730004FF00053FFF70ABE51EA030C17D41CF5F3
:10374000801F58BFBCF5801F00F10680994218BF4A
:10375000704708BF9042704707D711F5801F58BFC8
:1037600013F5801F19D499427047894270471CF5A0
:10377000801F08D5BCF5801FF7D58B4218BF704756
:1037800008BF824270474FF4001C1CEB410F38BF4A
:103790001CEB430F01D28B42704770B500F008F864
:1037A000922449004FF000514FF08053FFF7CEBDF7
:1037B0000EF1020E2EF0030E5EF8046B364205D4B5
:1037C000012A43EB030515F5001F12D8012841EB30
:1037D000010C1CF5001F0CD80ED14FEAD17C0CEB6C
:1037E0004C0C0CF1020C15F5001F08BF4CEBD37C00
:1037F00004E04FF0080C01E04FEAD37C0CEB4C05E1
:1038000026FA05F606F00706B6F1040C06D20EEB12
:10381000860CBDE870404CF0010C6047DFE80CF00E
:10382000090B02024FF00041A1F500214FF000000A
:1038300070BD19461046012851EB010418BFD4F59C
:10384000001484BF002001F0004170BD0808A0F5FD
:1038500000114FEA3101704710B5FFF7DDFE0CBFD4
:103860000120002010BD10B5FFF7D6FE14BF0120C7
:10387000002010BD10B5FFF723FF8CBF01200020F2
:1038800010BD10B5FFF71CFF2CBF0120002010BD9C
:1038900010B5FFF751FF94BF0120002010BD10B5F7
:1038A000FFF74AFF34BF0120002010BDF1EE100ADF
:1038B0004FF6FF71C0F2C03120EA010040F04070C5
:1038C000E1EE100A7047FDF794B9FDF7CBBA00009E
:1038D000000000000000000030313233343536374C
:1038E0003839414243444546403058003031323344
:1038F0003435363738396162636465664030780044
:1039000004000008000000000000000200010000A8
:10391000103031323334353637383961626364659B
:1039200066787000303132333435363738394142B9
:10393000434445465850000002400000000000A0EB
:103940000000000005400000000000C8000000006A
:103950000C4000000000409C0000000019400000E6
:103960000020BCBE0000000034400000BFC91B8E18
:1039700000000004B5400000504BCFD06607E2CFF6
:10398000010000006C4100003E8251AADFEEA73426
:1039900001000000D9420000DCB5A0E23A301F97D8
:1039A000FFFFFFFFB4450000FD25A0C8E9A3C14FFC
:1039B000FFFFFFFFFF3F000000000080000000004D
:1039C000FF3F000000000080000000000100000038
:1039D00003000000020000000600000004000000D8
:1039E0000C000000080000000900000050726F6722
:1039F00072616D205374617274732E0D0A00544508
:103A00004D50204348414E4745443A2536640D0AFF
:103A1000005468617420636F6D6D616E642069731A
:103A2000206E6F74207265636F676E697A65642EAD
:103A300020506C656173652073656E64206120762B
:103A4000616C696420636F6D6D616E640D0A004F77
:103A500070656E696E6720446F6F720D0A00436C6B
:103A60006F73696E6720446F6F720D0A0054656D45
:103A7000706572617475726520746F6F2068696714
:103A8000682E20446F6F72206F70656E696E672EAE
:103A90000A0054656D706572617475726520647298
:103AA0006F707065642E20446F6F7220636C6F734B
:103AB000696E672E0A000000083C00080000002024
:103AC00008000000C4010008103C000808000020A5
:103AD000800A0000E00100081C0000004300000014
:103AE000F8FFFFFF0C0000000E0000000F000000B8
:103AF0002E0000001001000043000000F8FFFFFF4F
:103B000000404040404040404040414141414140F0
:103B100040404040404040404040404040404040A5
:103B20004005020202020202020202020202020234
:103B30000220202020202020202020020202020239
:103B40000202909090909090101010101010101091
:103B5000101010101010101010101010020202029D
:103B600002028888888888880808080808080808E1
:103B700008080808080808080808080802020202DD
:103B800040000000000000000000000000000000F5
:103B90000000000000000000000000000000000025
:103BA0000000000000000000000000000000000015
:103BB0000000000000000000000000000000000005
:103BC00000000000000000000000000000000000F5
:103BD00000000000000000000000000000000000E5
:103BE00000000000000000000000000000000000D5
:103BF00000000000000000000000000000000000C5
:103C000000000000000000006801002068020020A1
:040000050800018965
:00000001FF
